{
  "contractName": "Database",
  "abi": [
    {
      "inputs": [],
      "stateMutability": "nonpayable",
      "type": "constructor"
    },
    {
      "anonymous": false,
      "inputs": [
        {
          "indexed": false,
          "internalType": "string",
          "name": "message",
          "type": "string"
        },
        {
          "indexed": false,
          "internalType": "string",
          "name": "key",
          "type": "string"
        },
        {
          "indexed": false,
          "internalType": "string",
          "name": "value",
          "type": "string"
        }
      ],
      "name": "Debug",
      "type": "event"
    },
    {
      "inputs": [
        {
          "internalType": "string",
          "name": "username",
          "type": "string"
        }
      ],
      "name": "isUsernameTaken",
      "outputs": [
        {
          "internalType": "bool",
          "name": "",
          "type": "bool"
        }
      ],
      "stateMutability": "view",
      "type": "function",
      "constant": true
    },
    {
      "inputs": [
        {
          "internalType": "string",
          "name": "username",
          "type": "string"
        },
        {
          "internalType": "string",
          "name": "hashedPassword",
          "type": "string"
        }
      ],
      "name": "registerUser",
      "outputs": [],
      "stateMutability": "nonpayable",
      "type": "function"
    },
    {
      "inputs": [
        {
          "internalType": "string",
          "name": "fname",
          "type": "string"
        },
        {
          "internalType": "string",
          "name": "lname",
          "type": "string"
        },
        {
          "internalType": "string",
          "name": "email",
          "type": "string"
        },
        {
          "internalType": "string",
          "name": "ID",
          "type": "string"
        },
        {
          "internalType": "string",
          "name": "document",
          "type": "string"
        }
      ],
      "name": "updateUserProfile",
      "outputs": [],
      "stateMutability": "nonpayable",
      "type": "function"
    },
    {
      "inputs": [
        {
          "internalType": "string",
          "name": "username",
          "type": "string"
        }
      ],
      "name": "getHashedPassword",
      "outputs": [
        {
          "internalType": "string",
          "name": "",
          "type": "string"
        }
      ],
      "stateMutability": "view",
      "type": "function",
      "constant": true
    },
    {
      "inputs": [],
      "name": "getUserData",
      "outputs": [
        {
          "internalType": "string",
          "name": "fname",
          "type": "string"
        },
        {
          "internalType": "string",
          "name": "lname",
          "type": "string"
        },
        {
          "internalType": "string",
          "name": "email",
          "type": "string"
        },
        {
          "internalType": "string",
          "name": "ID",
          "type": "string"
        },
        {
          "internalType": "string",
          "name": "document",
          "type": "string"
        }
      ],
      "stateMutability": "view",
      "type": "function",
      "constant": true
    }
  ],
  "bytecode": "0x60806040523480156200001157600080fd5b507f8eea5daf07de93b3c13541a471601aaa32a2da9b4ee803064246e212d376648060405162000041906200009d565b60405180910390a162000126565b60006200005e601183620000e9565b91506200006b82620000fa565b602082019050919050565b600062000085600083620000e9565b9150620000928262000123565b600082019050919050565b60006060820190508181036000830152620000b8816200004f565b90508181036020830152620000cd8162000076565b90508181036040830152620000e28162000076565b9050919050565b600082825260208201905092915050565b7f436f6e7472616374206465706c6f796564000000000000000000000000000000600082015250565b50565b610fb180620001366000396000f3fe608060405234801561001057600080fd5b50600436106100575760003560e01c8063022651df1461005c578063176c59191461008c5780631d2e4afd146100bc57806322e8c87d146100d8578063df6a97ce146100fa575b600080fd5b610076600480360381019061007191906108d9565b610116565b6040516100839190610bcf565b60405180910390f35b6100a660048036038101906100a191906108d9565b610231565b6040516100b39190610bb4565b60405180910390f35b6100d660048036038101906100d1919061091a565b610266565b005b6100e0610378565b6040516100f1959493929190610bf1565b60405180910390f35b610114600480360381019061010f9190610986565b6106d2565b005b60606001826040516101289190610b9d565b908152602001604051809103902060009054906101000a900460ff16610183576040517f08c379a000000000000000000000000000000000000000000000000000000000815260040161017a90610cf7565b60405180910390fd5b6002826040516101939190610b9d565b908152602001604051809103902080546101ac90610e02565b80601f01602080910402602001604051908101604052809291908181526020018280546101d890610e02565b80156102255780601f106101fa57610100808354040283529160200191610225565b820191906000526020600020905b81548152906001019060200180831161020857829003601f168201915b50505050509050919050565b60006001826040516102439190610b9d565b908152602001604051809103902060009054906101000a900460ff169050919050565b6001826040516102769190610b9d565b908152602001604051809103902060009054906101000a900460ff16156102d2576040517f08c379a00000000000000000000000000000000000000000000000000000000081526004016102c990610d17565b60405180910390fd5b600180836040516102e39190610b9d565b908152602001604051809103902060006101000a81548160ff021916908315150217905550806002836040516103199190610b9d565b9081526020016040518091039020908051906020019061033a9291906107ce565b507f8eea5daf07de93b3c13541a471601aaa32a2da9b4ee803064246e212d3766480828260405161036c929190610cad565b60405180910390a15050565b606080606080606060008060003373ffffffffffffffffffffffffffffffffffffffff1673ffffffffffffffffffffffffffffffffffffffff1681526020019081526020016000206040518060a00160405290816000820180546103db90610e02565b80601f016020809104026020016040519081016040528092919081815260200182805461040790610e02565b80156104545780601f1061042957610100808354040283529160200191610454565b820191906000526020600020905b81548152906001019060200180831161043757829003601f168201915b5050505050815260200160018201805461046d90610e02565b80601f016020809104026020016040519081016040528092919081815260200182805461049990610e02565b80156104e65780601f106104bb576101008083540402835291602001916104e6565b820191906000526020600020905b8154815290600101906020018083116104c957829003601f168201915b505050505081526020016002820180546104ff90610e02565b80601f016020809104026020016040519081016040528092919081815260200182805461052b90610e02565b80156105785780601f1061054d57610100808354040283529160200191610578565b820191906000526020600020905b81548152906001019060200180831161055b57829003601f168201915b5050505050815260200160038201805461059190610e02565b80601f01602080910402602001604051908101604052809291908181526020018280546105bd90610e02565b801561060a5780601f106105df5761010080835404028352916020019161060a565b820191906000526020600020905b8154815290600101906020018083116105ed57829003601f168201915b5050505050815260200160048201805461062390610e02565b80601f016020809104026020016040519081016040528092919081815260200182805461064f90610e02565b801561069c5780601f106106715761010080835404028352916020019161069c565b820191906000526020600020905b81548152906001019060200180831161067f57829003601f168201915b50505050508152505090508060000151816020015182604001518360600151846080015195509550955095509550509091929394565b60008060003373ffffffffffffffffffffffffffffffffffffffff1673ffffffffffffffffffffffffffffffffffffffff16815260200190815260200160002090508581600001908051906020019061072c9291906107ce565b50848160010190805190602001906107459291906107ce565b508381600201908051906020019061075e9291906107ce565b50828160030190805190602001906107779291906107ce565b50818160040190805190602001906107909291906107ce565b507f8eea5daf07de93b3c13541a471601aaa32a2da9b4ee803064246e212d37664806040516107be90610c67565b60405180910390a1505050505050565b8280546107da90610e02565b90600052602060002090601f0160209004810192826107fc5760008555610843565b82601f1061081557805160ff1916838001178555610843565b82800160010185558215610843579182015b82811115610842578251825591602001919060010190610827565b5b5090506108509190610854565b5090565b5b8082111561086d576000816000905550600101610855565b5090565b600061088461087f84610d5c565b610d37565b90508281526020810184848401111561089c57600080fd5b6108a7848285610dc0565b509392505050565b600082601f8301126108c057600080fd5b81356108d0848260208601610871565b91505092915050565b6000602082840312156108eb57600080fd5b600082013567ffffffffffffffff81111561090557600080fd5b610911848285016108af565b91505092915050565b6000806040838503121561092d57600080fd5b600083013567ffffffffffffffff81111561094757600080fd5b610953858286016108af565b925050602083013567ffffffffffffffff81111561097057600080fd5b61097c858286016108af565b9150509250929050565b600080600080600060a0868803121561099e57600080fd5b600086013567ffffffffffffffff8111156109b857600080fd5b6109c4888289016108af565b955050602086013567ffffffffffffffff8111156109e157600080fd5b6109ed888289016108af565b945050604086013567ffffffffffffffff811115610a0a57600080fd5b610a16888289016108af565b935050606086013567ffffffffffffffff811115610a3357600080fd5b610a3f888289016108af565b925050608086013567ffffffffffffffff811115610a5c57600080fd5b610a68888289016108af565b9150509295509295909350565b610a7e81610db4565b82525050565b6000610a8f82610d8d565b610a998185610d98565b9350610aa9818560208601610dcf565b610ab281610ec3565b840191505092915050565b6000610ac882610d8d565b610ad28185610da9565b9350610ae2818560208601610dcf565b80840191505092915050565b6000610afb601483610d98565b9150610b0682610ed4565b602082019050919050565b6000610b1e600f83610d98565b9150610b2982610efd565b602082019050919050565b6000610b41601383610d98565b9150610b4c82610f26565b602082019050919050565b6000610b64600083610d98565b9150610b6f82610f4f565b600082019050919050565b6000610b87601983610d98565b9150610b9282610f52565b602082019050919050565b6000610ba98284610abd565b915081905092915050565b6000602082019050610bc96000830184610a75565b92915050565b60006020820190508181036000830152610be98184610a84565b905092915050565b600060a0820190508181036000830152610c0b8188610a84565b90508181036020830152610c1f8187610a84565b90508181036040830152610c338186610a84565b90508181036060830152610c478185610a84565b90508181036080830152610c5b8184610a84565b90509695505050505050565b60006060820190508181036000830152610c8081610aee565b90508181036020830152610c9381610b57565b90508181036040830152610ca681610b57565b9050919050565b60006060820190508181036000830152610cc681610b11565b90508181036020830152610cda8185610a84565b90508181036040830152610cee8184610a84565b90509392505050565b60006020820190508181036000830152610d1081610b34565b9050919050565b60006020820190508181036000830152610d3081610b7a565b9050919050565b6000610d41610d52565b9050610d4d8282610e34565b919050565b6000604051905090565b600067ffffffffffffffff821115610d7757610d76610e94565b5b610d8082610ec3565b9050602081019050919050565b600081519050919050565b600082825260208201905092915050565b600081905092915050565b60008115159050919050565b82818337600083830152505050565b60005b83811015610ded578082015181840152602081019050610dd2565b83811115610dfc576000848401525b50505050565b60006002820490506001821680610e1a57607f821691505b60208210811415610e2e57610e2d610e65565b5b50919050565b610e3d82610ec3565b810181811067ffffffffffffffff82111715610e5c57610e5b610e94565b5b80604052505050565b7f4e487b7100000000000000000000000000000000000000000000000000000000600052602260045260246000fd5b7f4e487b7100000000000000000000000000000000000000000000000000000000600052604160045260246000fd5b6000601f19601f8301169050919050565b7f557365722070726f66696c652075706461746564000000000000000000000000600082015250565b7f5573657220726567697374657265640000000000000000000000000000000000600082015250565b7f5573657220646f6573206e6f7420657869737400000000000000000000000000600082015250565b50565b7f557365726e616d6520697320616c72656164792074616b656e0000000000000060008201525056fea2646970667358221220d20a117b04b18496ad75257cee45dbeedaf0eab4ef25f28c26c89d0b5cc0cd1e64736f6c63430008020033",
  "immutableReferences": {},
  "source": "// SPDX-License-Identifier: MIT\r\npragma solidity ^0.8.0;\r\n\r\ncontract Database {\r\n    event Debug(string message, string key, string value);\r\n\r\n    // New struct to store user data\r\n    struct UserData {\r\n        string fname;\r\n        string lname;\r\n        string email;\r\n        string ID;\r\n        string document;\r\n    }\r\n\r\n    // Mapping to associate Ethereum addresses with user data\r\n    mapping(address => UserData) private usersData;\r\n\r\n    mapping(string => bool) private usernameTaken;\r\n    mapping(string => string) private hashedPasswords;\r\n\r\n    constructor() {\r\n        emit Debug(\"Contract deployed\", \"\", \"\");\r\n    }\r\n\r\n    function isUsernameTaken(string memory username) public view returns (bool) {\r\n    return usernameTaken[username];\r\n}\r\n\r\n\r\n    // Register user with username and hashedPassword\r\n    function registerUser(string memory username, string memory hashedPassword) public {\r\n        require(!usernameTaken[username], \"Username is already taken\");\r\n        usernameTaken[username] = true;\r\n        hashedPasswords[username] = hashedPassword;\r\n\r\n        emit Debug(\"User registered\", username, hashedPassword);\r\n    }\r\n\r\n    // Update user profile with additional information\r\n    function updateUserProfile(string memory fname, string memory lname, string memory email, string memory ID, string memory document) public {\r\n    // Update user profile data\r\n    UserData storage userData = usersData[msg.sender];\r\n    userData.fname = fname;\r\n    userData.lname = lname;\r\n    userData.email = email;\r\n    userData.ID = ID;\r\n    userData.document = document;\r\n\r\n    emit Debug(\"User profile updated\", \"\", \"\");\r\n}\r\n\r\n\r\n    function getHashedPassword(string memory username) public view returns (string memory) {\r\n        require(usernameTaken[username], \"User does not exist\");\r\n        return hashedPasswords[username];\r\n    }\r\n\r\n    // Retrieve user profile data\r\n    function getUserData() public view returns (string memory fname, string memory lname, string memory email, string memory ID, string memory document) {\r\n        UserData memory userData = usersData[msg.sender];\r\n        return (userData.fname, userData.lname, userData.email, userData.ID, userData.document);\r\n    }\r\n}\r\n",
  "sourcePath": "C:\\truffle-nodejs\\contracts\\Database.sol",
  "compiler": {
    "name": "solc",
    "version": "0.8.2+commit.661d1103.Emscripten.clang"
  },
  "schemaVersion": "3.4.16",
  "updatedAt": "2023-12-26T14:45:19.320Z",
  "networkType": "ethereum",
  "devdoc": {
    "kind": "dev",
    "methods": {},
    "version": 1
  },
  "userdoc": {
    "kind": "user",
    "methods": {},
    "version": 1
  }
}