{
  "contractName": "UserProfile",
  "abi": [
    {
      "anonymous": false,
      "inputs": [
        {
          "indexed": true,
          "internalType": "address",
          "name": "user",
          "type": "address"
        },
        {
          "indexed": false,
          "internalType": "string",
          "name": "fname",
          "type": "string"
        },
        {
          "indexed": false,
          "internalType": "string",
          "name": "lname",
          "type": "string"
        },
        {
          "indexed": false,
          "internalType": "string",
          "name": "email",
          "type": "string"
        },
        {
          "indexed": false,
          "internalType": "string",
          "name": "ID",
          "type": "string"
        },
        {
          "indexed": false,
          "internalType": "string",
          "name": "document",
          "type": "string"
        }
      ],
      "name": "ProfileRetrieved",
      "type": "event"
    },
    {
      "anonymous": false,
      "inputs": [
        {
          "indexed": true,
          "internalType": "address",
          "name": "user",
          "type": "address"
        },
        {
          "indexed": false,
          "internalType": "string",
          "name": "fname",
          "type": "string"
        },
        {
          "indexed": false,
          "internalType": "string",
          "name": "lname",
          "type": "string"
        },
        {
          "indexed": false,
          "internalType": "string",
          "name": "email",
          "type": "string"
        },
        {
          "indexed": false,
          "internalType": "string",
          "name": "ID",
          "type": "string"
        },
        {
          "indexed": false,
          "internalType": "string",
          "name": "document",
          "type": "string"
        }
      ],
      "name": "ProfileUpdated",
      "type": "event"
    },
    {
      "inputs": [
        {
          "internalType": "string",
          "name": "fname",
          "type": "string"
        },
        {
          "internalType": "string",
          "name": "lname",
          "type": "string"
        },
        {
          "internalType": "string",
          "name": "email",
          "type": "string"
        },
        {
          "internalType": "string",
          "name": "ID",
          "type": "string"
        },
        {
          "internalType": "string",
          "name": "document",
          "type": "string"
        }
      ],
      "name": "updateProfile",
      "outputs": [],
      "stateMutability": "nonpayable",
      "type": "function"
    },
    {
      "inputs": [],
      "name": "getUserProfile",
      "outputs": [
        {
          "internalType": "string",
          "name": "fname",
          "type": "string"
        },
        {
          "internalType": "string",
          "name": "lname",
          "type": "string"
        },
        {
          "internalType": "string",
          "name": "email",
          "type": "string"
        },
        {
          "internalType": "string",
          "name": "ID",
          "type": "string"
        },
        {
          "internalType": "string",
          "name": "document",
          "type": "string"
        }
      ],
      "stateMutability": "view",
      "type": "function",
      "constant": true
    }
  ],
  "bytecode": "0x608060405234801561001057600080fd5b5061098e806100206000396000f3fe608060405234801561001057600080fd5b50600436106100365760003560e01c80636f61c7441461003b578063b043e0321461005d575b600080fd5b610043610079565b60405161005495949392919061075c565b60405180910390f35b61007760048036038101906100729190610634565b6103d3565b005b606080606080606060008060003373ffffffffffffffffffffffffffffffffffffffff1673ffffffffffffffffffffffffffffffffffffffff1681526020019081526020016000206040518060a00160405290816000820180546100dc90610886565b80601f016020809104026020016040519081016040528092919081815260200182805461010890610886565b80156101555780601f1061012a57610100808354040283529160200191610155565b820191906000526020600020905b81548152906001019060200180831161013857829003601f168201915b5050505050815260200160018201805461016e90610886565b80601f016020809104026020016040519081016040528092919081815260200182805461019a90610886565b80156101e75780601f106101bc576101008083540402835291602001916101e7565b820191906000526020600020905b8154815290600101906020018083116101ca57829003601f168201915b5050505050815260200160028201805461020090610886565b80601f016020809104026020016040519081016040528092919081815260200182805461022c90610886565b80156102795780601f1061024e57610100808354040283529160200191610279565b820191906000526020600020905b81548152906001019060200180831161025c57829003601f168201915b5050505050815260200160038201805461029290610886565b80601f01602080910402602001604051908101604052809291908181526020018280546102be90610886565b801561030b5780601f106102e05761010080835404028352916020019161030b565b820191906000526020600020905b8154815290600101906020018083116102ee57829003601f168201915b5050505050815260200160048201805461032490610886565b80601f016020809104026020016040519081016040528092919081815260200182805461035090610886565b801561039d5780601f106103725761010080835404028352916020019161039d565b820191906000526020600020905b81548152906001019060200180831161038057829003601f168201915b50505050508152505090508060000151816020015182604001518360600151846080015195509550955095509550509091929394565b6040518060a00160405280868152602001858152602001848152602001838152602001828152506000803373ffffffffffffffffffffffffffffffffffffffff1673ffffffffffffffffffffffffffffffffffffffff1681526020019081526020016000206000820151816000019080519060200190610454929190610529565b506020820151816001019080519060200190610471929190610529565b50604082015181600201908051906020019061048e929190610529565b5060608201518160030190805190602001906104ab929190610529565b5060808201518160040190805190602001906104c8929190610529565b509050503373ffffffffffffffffffffffffffffffffffffffff167f5844f757d4048a08453bf1dc9d4a8a1a67df216d9cecc54d3e4f10be32adc931868686868660405161051a95949392919061075c565b60405180910390a25050505050565b82805461053590610886565b90600052602060002090601f016020900481019282610557576000855561059e565b82601f1061057057805160ff191683800117855561059e565b8280016001018555821561059e579182015b8281111561059d578251825591602001919060010190610582565b5b5090506105ab91906105af565b5090565b5b808211156105c85760008160009055506001016105b0565b5090565b60006105df6105da846107f7565b6107d2565b9050828152602081018484840111156105f757600080fd5b610602848285610844565b509392505050565b600082601f83011261061b57600080fd5b813561062b8482602086016105cc565b91505092915050565b600080600080600060a0868803121561064c57600080fd5b600086013567ffffffffffffffff81111561066657600080fd5b6106728882890161060a565b955050602086013567ffffffffffffffff81111561068f57600080fd5b61069b8882890161060a565b945050604086013567ffffffffffffffff8111156106b857600080fd5b6106c48882890161060a565b935050606086013567ffffffffffffffff8111156106e157600080fd5b6106ed8882890161060a565b925050608086013567ffffffffffffffff81111561070a57600080fd5b6107168882890161060a565b9150509295509295909350565b600061072e82610828565b6107388185610833565b9350610748818560208601610853565b61075181610947565b840191505092915050565b600060a08201905081810360008301526107768188610723565b9050818103602083015261078a8187610723565b9050818103604083015261079e8186610723565b905081810360608301526107b28185610723565b905081810360808301526107c68184610723565b90509695505050505050565b60006107dc6107ed565b90506107e882826108b8565b919050565b6000604051905090565b600067ffffffffffffffff82111561081257610811610918565b5b61081b82610947565b9050602081019050919050565b600081519050919050565b600082825260208201905092915050565b82818337600083830152505050565b60005b83811015610871578082015181840152602081019050610856565b83811115610880576000848401525b50505050565b6000600282049050600182168061089e57607f821691505b602082108114156108b2576108b16108e9565b5b50919050565b6108c182610947565b810181811067ffffffffffffffff821117156108e0576108df610918565b5b80604052505050565b7f4e487b7100000000000000000000000000000000000000000000000000000000600052602260045260246000fd5b7f4e487b7100000000000000000000000000000000000000000000000000000000600052604160045260246000fd5b6000601f19601f830116905091905056fea264697066735822122029b5418acbb85034046e17bb164a6d24d15e2e8a87ef8df3f5d00d2c9960863b64736f6c63430008020033",
  "immutableReferences": {},
  "source": "// SPDX-License-Identifier: MIT\r\npragma solidity ^0.8.0;\r\n\r\ncontract UserProfile {\r\n    event ProfileUpdated(address indexed user, string fname, string lname, string email, string ID, string document);\r\n    event ProfileRetrieved(address indexed user, string fname, string lname, string email, string ID, string document);\r\n\r\n    // New struct to store user profile data\r\n    struct UserProfileData {\r\n        string fname;\r\n        string lname;\r\n        string email;\r\n        string ID;\r\n        string document;\r\n    }\r\n\r\n    // Mapping to associate Ethereum addresses with user profile data\r\n    mapping(address => UserProfileData) private userProfileData;\r\n\r\n    // Function to update user profile data\r\n    function updateProfile(string memory fname, string memory lname, string memory email, string memory ID, string memory document) public {\r\n        userProfileData[msg.sender] = UserProfileData({\r\n            fname: fname,\r\n            lname: lname,\r\n            email: email,\r\n            ID: ID,\r\n            document: document\r\n        });\r\n\r\n        emit ProfileUpdated(msg.sender, fname, lname, email, ID, document);\r\n    }\r\n\r\n    // Function to retrieve user profile data\r\n    function getUserProfile() public view returns (string memory fname, string memory lname, string memory email, string memory ID, string memory document) {\r\n        UserProfileData memory data = userProfileData[msg.sender];\r\n        return (data.fname, data.lname, data.email, data.ID, data.document);\r\n    }\r\n}\r\n",
  "sourcePath": "C:\\truffle-nodejs\\contracts\\UserProfile.sol",
  "compiler": {
    "name": "solc",
    "version": "0.8.2+commit.661d1103.Emscripten.clang"
  },
  "schemaVersion": "3.4.16",
  "updatedAt": "2023-12-26T14:45:19.787Z",
  "networkType": "ethereum",
  "devdoc": {
    "kind": "dev",
    "methods": {},
    "version": 1
  },
  "userdoc": {
    "kind": "user",
    "methods": {},
    "version": 1
  }
}