{
  "contractName": "UserAuthentication",
  "abi": [
    {
      "inputs": [],
      "stateMutability": "nonpayable",
      "type": "constructor"
    },
    {
      "anonymous": false,
      "inputs": [
        {
          "indexed": false,
          "internalType": "string",
          "name": "username",
          "type": "string"
        },
        {
          "indexed": false,
          "internalType": "string",
          "name": "hashCode",
          "type": "string"
        }
      ],
      "name": "HashCodeGenerated",
      "type": "event"
    },
    {
      "anonymous": false,
      "inputs": [
        {
          "indexed": false,
          "internalType": "string",
          "name": "username",
          "type": "string"
        },
        {
          "indexed": false,
          "internalType": "string",
          "name": "reason",
          "type": "string"
        }
      ],
      "name": "RegistrationFailed",
      "type": "event"
    },
    {
      "anonymous": false,
      "inputs": [
        {
          "indexed": true,
          "internalType": "address",
          "name": "user",
          "type": "address"
        },
        {
          "indexed": false,
          "internalType": "uint256",
          "name": "amount",
          "type": "uint256"
        },
        {
          "indexed": false,
          "internalType": "uint256",
          "name": "fee",
          "type": "uint256"
        }
      ],
      "name": "TransactionProcessed",
      "type": "event"
    },
    {
      "anonymous": false,
      "inputs": [
        {
          "indexed": false,
          "internalType": "string",
          "name": "username",
          "type": "string"
        },
        {
          "indexed": false,
          "internalType": "string",
          "name": "passwordHash",
          "type": "string"
        }
      ],
      "name": "UserRegistered",
      "type": "event"
    },
    {
      "inputs": [],
      "name": "owner",
      "outputs": [
        {
          "internalType": "address payable",
          "name": "",
          "type": "address"
        }
      ],
      "stateMutability": "view",
      "type": "function",
      "constant": true
    },
    {
      "inputs": [
        {
          "internalType": "string",
          "name": "",
          "type": "string"
        }
      ],
      "name": "userHashCodes",
      "outputs": [
        {
          "internalType": "string",
          "name": "",
          "type": "string"
        }
      ],
      "stateMutability": "view",
      "type": "function",
      "constant": true
    },
    {
      "inputs": [],
      "name": "processTransaction",
      "outputs": [],
      "stateMutability": "payable",
      "type": "function",
      "payable": true
    },
    {
      "inputs": [
        {
          "internalType": "string",
          "name": "username",
          "type": "string"
        },
        {
          "internalType": "string",
          "name": "passwordHash",
          "type": "string"
        }
      ],
      "name": "registerUser",
      "outputs": [],
      "stateMutability": "nonpayable",
      "type": "function"
    },
    {
      "inputs": [
        {
          "internalType": "string",
          "name": "username",
          "type": "string"
        }
      ],
      "name": "generateHashCode",
      "outputs": [
        {
          "internalType": "string",
          "name": "",
          "type": "string"
        }
      ],
      "stateMutability": "nonpayable",
      "type": "function"
    },
    {
      "inputs": [
        {
          "internalType": "string",
          "name": "username",
          "type": "string"
        }
      ],
      "name": "getGeneratedHashCode",
      "outputs": [
        {
          "internalType": "string",
          "name": "",
          "type": "string"
        }
      ],
      "stateMutability": "view",
      "type": "function",
      "constant": true
    },
    {
      "inputs": [
        {
          "internalType": "string",
          "name": "username",
          "type": "string"
        }
      ],
      "name": "isUsernameTaken",
      "outputs": [
        {
          "internalType": "bool",
          "name": "",
          "type": "bool"
        }
      ],
      "stateMutability": "view",
      "type": "function",
      "constant": true
    },
    {
      "inputs": [
        {
          "internalType": "string",
          "name": "username",
          "type": "string"
        },
        {
          "internalType": "string",
          "name": "passwordHash",
          "type": "string"
        },
        {
          "internalType": "string",
          "name": "providedHashCode",
          "type": "string"
        }
      ],
      "name": "authenticateUser",
      "outputs": [
        {
          "internalType": "bool",
          "name": "",
          "type": "bool"
        }
      ],
      "stateMutability": "view",
      "type": "function",
      "constant": true
    }
  ],
  "bytecode": "0x608060405234801561001057600080fd5b5033600260006101000a81548173ffffffffffffffffffffffffffffffffffffffff021916908373ffffffffffffffffffffffffffffffffffffffff1602179055506117f5806100616000396000f3fe60806040526004361061007b5760003560e01c80638ba1d9631161004e5780638ba1d963146101605780638da5cb5b1461019d578063c7e824f6146101c8578063dddaaa42146101d25761007b565b8063176c5919146100805780631d2e4afd146100bd5780632ac5cba0146100e65780636499013614610123575b600080fd5b34801561008c57600080fd5b506100a760048036038101906100a29190610df6565b61020f565b6040516100b49190611233565b60405180910390f35b3480156100c957600080fd5b506100e460048036038101906100df9190610e37565b610246565b005b3480156100f257600080fd5b5061010d60048036038101906101089190610ea3565b6103c3565b60405161011a9190611233565b60405180910390f35b34801561012f57600080fd5b5061014a60048036038101906101459190610df6565b6104f0565b604051610157919061124e565b60405180910390f35b34801561016c57600080fd5b5061018760048036038101906101829190610df6565b61076c565b604051610194919061124e565b60405180910390f35b3480156101a957600080fd5b506101b2610822565b6040516101bf9190611218565b60405180910390f35b6101d0610848565b005b3480156101de57600080fd5b506101f960048036038101906101f49190610df6565b610a26565b604051610206919061124e565b60405180910390f35b6000808260405161022091906111ad565b908152602001604051809103902060020160009054906101000a900460ff169050919050565b60008260405161025691906111ad565b908152602001604051809103902060020160009054906101000a900460ff16156102b5576040517f08c379a00000000000000000000000000000000000000000000000000000000081526004016102ac9061135e565b60405180910390fd5b6040518060800160405280828152602001604051806020016040528060008152508152602001600115158152602001600015158152506000836040516102fb91906111ad565b90815260200160405180910390206000820151816000019080519060200190610325929190610c5e565b506020820151816001019080519060200190610342929190610c5e565b5060408201518160020160006101000a81548160ff02191690831515021790555060608201518160020160016101000a81548160ff0219169083151502179055509050507f996d7324173609959370942b1ee1b743dc623b3d50459e66c1d55df55e5a9f3782826040516103b7929190611270565b60405180910390a15050565b6000806000856040516103d691906111ad565b908152602001604051809103902060020160009054906101000a900460ff16801561046c57508360405160200161040d91906111ad565b6040516020818303038152906040528051906020012060008660405161043391906111ad565b908152602001604051809103902060000160405160200161045491906111c4565b60405160208183030381529060405280519060200120145b80156104e357508260405160200161048491906111ad565b604051602081830303815290604052805190602001206000866040516104aa91906111ad565b90815260200160405180910390206001016040516020016104cb91906111c4565b60405160208183030381529060405280519060200120145b9050809150509392505050565b606060008260405161050291906111ad565b908152602001604051809103902060020160009054906101000a900460ff16610560576040517f08c379a0000000000000000000000000000000000000000000000000000000008152600401610557906112de565b60405180910390fd5b60008260405161057091906111ad565b908152602001604051809103902060020160019054906101000a900460ff166106bb5761059b610ad6565b6000836040516105ab91906111ad565b908152602001604051809103902060010190805190602001906105cf929190610c5e565b5060016000836040516105e291906111ad565b908152602001604051809103902060020160016101000a81548160ff02191690831515021790555060008260405161061a91906111ad565b908152602001604051809103902060010160018360405161063b91906111ad565b9081526020016040518091039020908054610655906114d5565b610660929190610ce4565b507f21015fa7da90c0706ab9e9118e508158ab73eff03161e78366449c0406b6bb4a8260008460405161069391906111ad565b90815260200160405180910390206001016040516106b29291906112a7565b60405180910390a15b6000826040516106cb91906111ad565b908152602001604051809103902060010180546106e7906114d5565b80601f0160208091040260200160405190810160405280929190818152602001828054610713906114d5565b80156107605780601f1061073557610100808354040283529160200191610760565b820191906000526020600020905b81548152906001019060200180831161074357829003601f168201915b50505050509050919050565b60018180516020810182018051848252602083016020850120818352809550505050505060009150905080546107a1906114d5565b80601f01602080910402602001604051908101604052809291908181526020018280546107cd906114d5565b801561081a5780601f106107ef5761010080835404028352916020019161081a565b820191906000526020600020905b8154815290600101906020018083116107fd57829003601f168201915b505050505081565b600260009054906101000a900473ffffffffffffffffffffffffffffffffffffffff1681565b600260009054906101000a900473ffffffffffffffffffffffffffffffffffffffff1673ffffffffffffffffffffffffffffffffffffffff163373ffffffffffffffffffffffffffffffffffffffff16146108d8576040517f08c379a00000000000000000000000000000000000000000000000000000000081526004016108cf906112fe565b60405180910390fd5b6000341161091b576040517f08c379a00000000000000000000000000000000000000000000000000000000081526004016109129061131e565b60405180910390fd5b6000662386f26fc1000090508034101561096a576040517f08c379a00000000000000000000000000000000000000000000000000000000081526004016109619061133e565b60405180910390fd5b3373ffffffffffffffffffffffffffffffffffffffff167f460001faf2504a39744c92d4dd26d615b4d4a1f7521bfc189b4d9869c70c028334836040516109b292919061137e565b60405180910390a2600260009054906101000a900473ffffffffffffffffffffffffffffffffffffffff1673ffffffffffffffffffffffffffffffffffffffff166108fc829081150290604051600060405180830381858888f19350505050158015610a22573d6000803e3d6000fd5b5050565b6060600182604051610a3891906111ad565b90815260200160405180910390208054610a51906114d5565b80601f0160208091040260200160405190810160405280929190818152602001828054610a7d906114d5565b8015610aca5780601f10610a9f57610100808354040283529160200191610aca565b820191906000526020600020905b815481529060010190602001808311610aad57829003601f168201915b50505050509050919050565b60606000424433604051602001610aef939291906111db565b604051602081830303815290604052805190602001209050610b1081610b16565b91505090565b60606000600a67ffffffffffffffff811115610b5b577f4e487b7100000000000000000000000000000000000000000000000000000000600052604160045260246000fd5b6040519080825280601f01601f191660200182016040528015610b8d5781602001600182028036833780820191505090505b50905060005b600a811015610c5457838160208110610bd5577f4e487b7100000000000000000000000000000000000000000000000000000000600052603260045260246000fd5b1a60f81b828281518110610c12577f4e487b7100000000000000000000000000000000000000000000000000000000600052603260045260246000fd5b60200101907effffffffffffffffffffffffffffffffffffffffffffffffffffffffffffff1916908160001a9053508080610c4c90611538565b915050610b93565b5080915050919050565b828054610c6a906114d5565b90600052602060002090601f016020900481019282610c8c5760008555610cd3565b82601f10610ca557805160ff1916838001178555610cd3565b82800160010185558215610cd3579182015b82811115610cd2578251825591602001919060010190610cb7565b5b509050610ce09190610d71565b5090565b828054610cf0906114d5565b90600052602060002090601f016020900481019282610d125760008555610d60565b82601f10610d235780548555610d60565b82800160010185558215610d6057600052602060002091601f016020900482015b82811115610d5f578254825591600101919060010190610d44565b5b509050610d6d9190610d71565b5090565b5b80821115610d8a576000816000905550600101610d72565b5090565b6000610da1610d9c846113cc565b6113a7565b905082815260208101848484011115610db957600080fd5b610dc4848285611493565b509392505050565b600082601f830112610ddd57600080fd5b8135610ded848260208601610d8e565b91505092915050565b600060208284031215610e0857600080fd5b600082013567ffffffffffffffff811115610e2257600080fd5b610e2e84828501610dcc565b91505092915050565b60008060408385031215610e4a57600080fd5b600083013567ffffffffffffffff811115610e6457600080fd5b610e7085828601610dcc565b925050602083013567ffffffffffffffff811115610e8d57600080fd5b610e9985828601610dcc565b9150509250929050565b600080600060608486031215610eb857600080fd5b600084013567ffffffffffffffff811115610ed257600080fd5b610ede86828701610dcc565b935050602084013567ffffffffffffffff811115610efb57600080fd5b610f0786828701610dcc565b925050604084013567ffffffffffffffff811115610f2457600080fd5b610f3086828701610dcc565b9150509250925092565b610f438161144b565b82525050565b610f5a610f5582611439565b611581565b82525050565b610f698161145d565b82525050565b6000610f7a82611412565b610f84818561141d565b9350610f948185602086016114a2565b610f9d8161163c565b840191505092915050565b6000610fb382611412565b610fbd818561142e565b9350610fcd8185602086016114a2565b80840191505092915050565b60008154610fe6816114d5565b610ff0818661141d565b9450600182166000811461100b576001811461101d57611050565b60ff1983168652602086019350611050565b611026856113fd565b60005b8381101561104857815481890152600182019150602081019050611029565b808801955050505b50505092915050565b60008154611066816114d5565b611070818661142e565b9450600182166000811461108b576001811461109c576110cf565b60ff198316865281860193506110cf565b6110a5856113fd565b60005b838110156110c7578154818901526001820191506020810190506110a8565b838801955050505b50505092915050565b60006110e5602e8361141d565b91506110f08261165a565b604082019050919050565b6000611108602e8361141d565b9150611113826116a9565b604082019050919050565b600061112b60288361141d565b9150611136826116f8565b604082019050919050565b600061114e60128361141d565b915061115982611747565b602082019050919050565b600061117160338361141d565b915061117c82611770565b604082019050919050565b61119081611489565b82525050565b6111a76111a282611489565b6115a5565b82525050565b60006111b98284610fa8565b915081905092915050565b60006111d08284611059565b915081905092915050565b60006111e78286611196565b6020820191506111f78285611196565b6020820191506112078284610f49565b601482019150819050949350505050565b600060208201905061122d6000830184610f3a565b92915050565b60006020820190506112486000830184610f60565b92915050565b600060208201905081810360008301526112688184610f6f565b905092915050565b6000604082019050818103600083015261128a8185610f6f565b9050818103602083015261129e8184610f6f565b90509392505050565b600060408201905081810360008301526112c18185610f6f565b905081810360208301526112d58184610fd9565b90509392505050565b600060208201905081810360008301526112f7816110d8565b9050919050565b60006020820190508181036000830152611317816110fb565b9050919050565b600060208201905081810360008301526113378161111e565b9050919050565b6000602082019050818103600083015261135781611141565b9050919050565b6000602082019050818103600083015261137781611164565b9050919050565b60006040820190506113936000830185611187565b6113a06020830184611187565b9392505050565b60006113b16113c2565b90506113bd8282611507565b919050565b6000604051905090565b600067ffffffffffffffff8211156113e7576113e661160d565b5b6113f08261163c565b9050602081019050919050565b60008190508160005260206000209050919050565b600081519050919050565b600082825260208201905092915050565b600081905092915050565b600061144482611469565b9050919050565b600061145682611469565b9050919050565b60008115159050919050565b600073ffffffffffffffffffffffffffffffffffffffff82169050919050565b6000819050919050565b82818337600083830152505050565b60005b838110156114c05780820151818401526020810190506114a5565b838111156114cf576000848401525b50505050565b600060028204905060018216806114ed57607f821691505b60208210811415611501576115006115de565b5b50919050565b6115108261163c565b810181811067ffffffffffffffff8211171561152f5761152e61160d565b5b80604052505050565b600061154382611489565b91507fffffffffffffffffffffffffffffffffffffffffffffffffffffffffffffffff821415611576576115756115af565b5b600182019050919050565b600061158c82611593565b9050919050565b600061159e8261164d565b9050919050565b6000819050919050565b7f4e487b7100000000000000000000000000000000000000000000000000000000600052601160045260246000fd5b7f4e487b7100000000000000000000000000000000000000000000000000000000600052602260045260246000fd5b7f4e487b7100000000000000000000000000000000000000000000000000000000600052604160045260246000fd5b6000601f19601f8301169050919050565b60008160601b9050919050565b7f47656e6572617465206861736820636f6465206661696c65643a20557365722060008201527f646f6573206e6f74206578697374000000000000000000000000000000000000602082015250565b7f4f6e6c792074686520636f6e7472616374206f776e65722063616e2063616c6c60008201527f20746869732066756e6374696f6e000000000000000000000000000000000000602082015250565b7f5472616e73616374696f6e2076616c7565206d7573742062652067726561746560008201527f72207468616e2030000000000000000000000000000000000000000000000000602082015250565b7f496e73756666696369656e742066756e64730000000000000000000000000000600082015250565b7f5573657220726567697374726174696f6e206661696c65643a20557365726e6160008201527f6d6520697320616c72656164792074616b656e0000000000000000000000000060208201525056fea2646970667358221220ea6ebc7d3ef1082054ce97ffaa0619411067812896431eb76d2737ef6a39f92c64736f6c63430008020033",
  "immutableReferences": {},
  "source": "// SPDX-License-Identifier: MIT\r\npragma solidity ^0.8.0;\r\n\r\ncontract UserAuthentication {\r\n    struct User {\r\n        string passwordHash;\r\n        string hashCode;\r\n        bool exists;\r\n        bool hashCodeGenerated;\r\n    }\r\n\r\n    mapping(string => User) private users;\r\n    mapping(string => string) public userHashCodes; // Added this line\r\n\r\n    event UserRegistered(string username, string passwordHash);\r\n    event HashCodeGenerated(string username, string hashCode);\r\n    event RegistrationFailed(string username, string reason);\r\n    event TransactionProcessed(address indexed user, uint256 amount, uint256 fee);\r\n\r\n    address payable public owner; // Address of the contract owner\r\n\r\n    modifier onlyOwner() {\r\n        require(msg.sender == owner, \"Only the contract owner can call this function\");\r\n        _;\r\n    }\r\n\r\n    constructor() {\r\n        owner = payable(msg.sender);\r\n    }\r\n\r\n    // Function to process a transaction and deduct a fee\r\n    function processTransaction() external payable onlyOwner {\r\n        require(msg.value > 0, \"Transaction value must be greater than 0\");\r\n\r\n        // Deduct a fee, e.g., 0.01 ETH\r\n        uint256 fee = 0.01 ether;\r\n        require(msg.value >= fee, \"Insufficient funds\");\r\n\r\n        // Perform your transaction processing logic here\r\n\r\n        // Emit an event to log the transaction details\r\n        emit TransactionProcessed(msg.sender, msg.value, fee);\r\n\r\n        // Transfer the fee to the contract owner\r\n        owner.transfer(fee);\r\n    }\r\n\r\n    function registerUser(string memory username, string memory passwordHash) external {\r\n        require(!users[username].exists, \"User registration failed: Username is already taken\");\r\n\r\n        users[username] = User({\r\n            passwordHash: passwordHash,\r\n            hashCode: \"\",\r\n            exists: true,\r\n            hashCodeGenerated: false\r\n        });\r\n\r\n        emit UserRegistered(username, passwordHash);\r\n    }\r\n\r\n    function generateRandomHashCode() internal view returns (string memory) {\r\n        bytes32 hash = keccak256(abi.encodePacked(block.timestamp, block.difficulty, msg.sender));\r\n        return toString(hash);\r\n    }\r\n\r\n    function generateHashCode(string memory username) external returns (string memory) {\r\n        require(users[username].exists, \"Generate hash code failed: User does not exist\");\r\n\r\n        if (!users[username].hashCodeGenerated) {\r\n            users[username].hashCode = generateRandomHashCode();\r\n            users[username].hashCodeGenerated = true;\r\n            userHashCodes[username] = users[username].hashCode;\r\n\r\n            emit HashCodeGenerated(username, users[username].hashCode);\r\n        }\r\n\r\n        return users[username].hashCode;\r\n    }\r\n\r\n    function toString(bytes32 x) internal pure returns (string memory) {\r\n        bytes memory bytesString = new bytes(10);\r\n        for (uint i = 0; i < 10; i++) {\r\n            bytesString[i] = x[i];\r\n        }\r\n        return string(bytesString);\r\n    }\r\n\r\n    function getGeneratedHashCode(string memory username) external view returns (string memory) {\r\n        return userHashCodes[username];\r\n    }\r\n\r\n    function isUsernameTaken(string memory username) external view returns (bool) {\r\n        return users[username].exists;\r\n    }\r\n\r\n    function authenticateUser(string memory username, string memory passwordHash, string memory providedHashCode) external view returns (bool) {\r\n        bool isUserValid = users[username].exists &&\r\n                           (keccak256(abi.encodePacked(users[username].passwordHash)) == keccak256(abi.encodePacked(passwordHash))) &&\r\n                           (keccak256(abi.encodePacked(users[username].hashCode)) == keccak256(abi.encodePacked(providedHashCode)));\r\n\r\n        if (!isUserValid) {\r\n            // Handle authentication failure\r\n        }\r\n\r\n        return isUserValid;\r\n    }\r\n}\r\n",
  "sourcePath": "C:\\truffle-nodejs\\contracts\\UserAuthentication.sol",
  "compiler": {
    "name": "solc",
    "version": "0.8.2+commit.661d1103.Emscripten.clang"
  },
  "schemaVersion": "3.4.16",
  "updatedAt": "2023-12-26T14:45:19.555Z",
  "networkType": "ethereum",
  "devdoc": {
    "kind": "dev",
    "methods": {},
    "version": 1
  },
  "userdoc": {
    "kind": "user",
    "methods": {},
    "version": 1
  }
}